:020000040800F2
:10000000C00600202902000831020008330200085F
:10001000350200083702000839020008000000001D
:100020000000000000000000000000003B0200088B
:100030003D020008000000003F02000841020008E5
:10004000430200084302000843020008430200087C
:10005000430200084302000843020008430200086C
:10006000430200084302000843020008430200085C
:10007000430200084302000843020008430200084C
:10008000430200084302000843020008430200083C
:10009000430200084302000843020008430200082C
:1000A000430200084302000843020008430200081C
:1000B000430200084302000843020008430200080C
:1000C00043020008430200084302000843020008FC
:1000D00043020008430200084302000843020008EC
:1000E00043020008430200084302000843020008DC
:1000F00043020008430200084302000843020008CC
:1001000043020008430200084302000843020008BB
:1001100043020008430200084302000843020008AB
:10012000430200084302000843020008430200089B
:10013000430200084302000843020008430200088B
:10014000430200084302000843020008430200087B
:10015000430200084302000843020008430200086B
:10016000430200084302000843020008430200085B
:100170004302000843020008430200080000000098
:10018000430200084302000800F002F800F03CF8C7
:100190000AA090E8000C82448344AAF10107DA45E2
:1001A00001D100F031F8AFF2090EBAE80F0013F0F8
:1001B000010F18BFFB1A43F001031847180C000089
:1001C000380C0000103A24BF78C878C1FAD852071A
:1001D00024BF30C830C144BF04680C6070470000C1
:1001E0000023002400250026103A28BF78C1FBD840
:1001F000520728BF30C148BF0B6070471FB500F0E1
:10020000E4FD1FBD10B510BD00F031F81146FFF739
:10021000F5FF00F0A1FD00F04FF803B4FFF7F2FF87
:1002200003BC00F057F80000094880470948004720
:10023000FEE7FEE7FEE7FEE7FEE7FEE7FEE7FEE796
:10024000FEE7FEE704480549054A064B70470000F3
:10025000650C000889010008C0000020C0060020CD
:10026000C0020020C00200207047704770477546EA
:1002700000F02CF8AE4605006946534620F0070012
:10028000854618B020B5FFF7DDFFBDE820404FF0F0
:1002900000064FF000074FF000084FF0000B21F070
:1002A0000701AC46ACE8C009ACE8C009ACE8C0093D
:1002B000ACE8C0098D46704710B50446AFF3008026
:1002C0002046BDE81040FFF7A8BF00000048704777
:1002D0005C00002001491820ABBEFEE726000200AA
:1002E0007047000054494A6822F440324A604A6824
:1002F00043681A434A600268526822F480720368B5
:100300005A6002685368026943EA022203685A602D
:100310000268526822F0407203685A6002685268AC
:1003200083681A4303685A600268926822F4006284
:1003300003689A6002689268C3681A4303689A6007
:100340003E4B826A9A4218D00268926822F070622C
:1003500003689A6002689268836A1A4303689A6025
:100360000268926822F0405203689A6002689268BC
:10037000C36A1A4303689A600BE00268926822F02D
:10038000706203689A600268926822F040520368C3
:100390009A600268926822F0020203689A6002681A
:1003A0009368826943EA420203689A60026AA2B1D2
:1003B0000268526842F4006203685A600268526838
:1003C00022F4604203685A6002685368426A521E0F
:1003D00043EA423203685A6005E00268526822F438
:1003E000006203685A600268D26A22F470020368ED
:1003F000DA620268D36A828B521E43EA02520368B1
:10040000DA620268926822F4007203689A600268F5
:100410009368026B43EA422203689A60026892681A
:1004200022F4806203689A6002689368426943EA32
:10043000822203689A607047002301400100000F88
:1004400000B585B000BF002000901248006840F45D
:100450008070104908600846006800F480700090C1
:1004600000BF00BF0C480D4908604FF000710B48F9
:100470008160012141610021C16000F0DBF80120B1
:10048000029003900020019001A9044800F008F8B0
:1004900005B000BD44380240002001401400002097
:1004A00038B502460020009000BF92F83C000128B9
:1004B00001D1022038BD012082F83C0000BF08684D
:1004C000092816D91068C0680C780A3C04EB44056A
:1004D0000724AC40A0431468E0600C780A3C04EBAD
:1004E00044048868A0401468E46820431468E0600D
:1004F00013E0106800690C7804EB44050724AC4055
:10050000A043146820610C7804EB44048868A04080
:10051000146824692043146820614868072817D2AA
:100520001068406B0C79641E04EB84051F24AC40FA
:10053000A04314686063088880B20C79641E04EBE1
:100540008404A0401468646B20431468606331E045
:1005500048680D2817D21068006B0C79E41F04EB73
:1005600084051F24AC40A04314682063088880B22F
:100570000C79E41F04EB8404A0401468246B20432E
:100580001468206316E01068C06A0C790D3C04EB17
:1005900084051F24AC40A0431468E062088880B240
:1005A0000C790D3C04EB8404A0401468E46A2043F9
:1005B0001468E062194B1A4C1068A04206D1086812
:1005C000122803D1586840F480005860144C106819
:1005D000A0421CD10868102802D00868112816D142
:1005E000586840F400005860086810280FD10D4882
:1005F00000680D4CB0FBF4F000EB80004000009070
:1006000002E00098401E009000980028F9D100BF39
:10061000002082F83C0000BF00BF4BE700230140F0
:10062000002001401000002040420F0001460868F1
:10063000C06C704770B5044600250CB9012070BD30
:100640001549A06A884200D000BF206C30B9002054
:10065000606484F83C00204600F020F8206C00F034
:10066000100088B9206C20F4885040F0020020640B
:100670002046FFF737FE00206064206C20F0020067
:1006800040F00100206400E0012500BF002084F854
:100690003C0000BF2846D2E70100000F704770B54C
:1006A00004460D4600262068806800F4806078B11A
:1006B0002068806800F4807050B1206C40F0200009
:1006C000206400BF002084F83C0000BF012070BD02
:1006D00000F0E6F9064612E0681C80B125B100F092
:1006E000DFF9801BA8420AD9206C40F00400206486
:1006F00000BF002084F83C0000BF0320E7E720682B
:10070000006800F002000228E6D16FF012002168B4
:100710000860206C40F4007020642068806800F05D
:100720004050B8B9A069A8B92068C06A00F4700048
:1007300020B12068806800F4806058B9206C20F4F3
:1007400080702064206C00F4805018B9206C40F058
:10075000010020640020BAE708B50146002000909F
:1007600000BF91F83C00012801D1022008BD012002
:1007700081F83C0000BF0868806800F00100A0B963
:100780000868806840F001000B6898602E48006897
:100790002E4BB0FBF3F000EB4000009002E000981D
:1007A000401E009000980028F9D10868806800F089
:1007B0000100002845D0086C40F20163984340F4E2
:1007C000807008640868406800F4806028B1086C94
:1007D00020F4005040F480500864086C00F480500D
:1007E00020B1486C20F00600486401E00020486415
:1007F00000BF002081F83C0000BF154A6FF02200C6
:100800000B681860506800F01F0058B908688068CD
:1008100000F04050A8B90868806840F080400B683C
:1008200098600EE00B4B086898420AD1086880680F
:1008300000F0405028B90868806840F080400B689C
:100840009860002092E700001000002040420F0056
:100850000023014000200140014600BF91F83C0008
:10086000012801D102207047012081F83C0000BF1F
:100870000868806820F001000A6890600868806855
:1008800000F0010028B9086C20F4885040F0010005
:10089000086400BF002081F83C0000BF00BFE2E711
:1008A000F8B502460B460025002400200021DCE0BC
:1008B000012606FA01F51E6806EA0504AC4273D16A
:1008C0005E68022E02D05E68122E13D1CF0802F1AC
:1008D000200656F827004E07F70E0F26BE40B043FD
:1008E0004F07FF0E1E69BE403043CF0802F12006BD
:1008F00046F8270010684F000326BE40B0431E791B
:1009000006F003064F00BE40304310605E68012EC3
:1009100008D05E68022E05D05E68112E02D05E6897
:10092000122E13D190684F000326BE40B0434F00F3
:10093000DE68BE4030439060506801268E40B04370
:100940001E79C6F300168E4030435060D0684F00C9
:100950000326BE40B0434F009E68BE403043D06087
:100960005E6806F08056B6F1805F7DD100BF00263C
:100970000096404E366846F480463E4F3E603E4606
:10098000366806F48046009600BF00BF3A4E8F08D6
:1009900056F827008E07370F0F26BE40B043374E5C
:1009A000B24202D1002624E05EE0354EB24201D1CF
:1009B00001261EE0334EB24201D1022619E0324E2A
:1009C000B24201D1032614E0304EB24201D10426D6
:1009D0000FE02F4EB24201D105260AE02D4EB24261
:1009E00001D1062605E02C4EB24201D1072600E0D7
:1009F00008268F073F0FBE4030431F4E8F0846F832
:100A00002700264E3068A0435E6806F48036B6F5AF
:100A1000803F00D12043214E3060361D3068A04316
:100A20005E6806F40036B6F5003F00D120431B4E49
:100A3000361D3060361D3068A0435E6806F48016AF
:100A4000B6F5801F00D12043144E08363060361DA5
:100A50003068A0435E6806F40016B6F5001F00D1AA
:100A600020430E4E0C363060491C1029FFF420AF95
:100A7000F8BD000044380240083801400000024040
:100A80000004024000080240000C02400010024036
:100A90000014024000180240001C0240003C0140CB
:100AA00001480068704700000400002010B50D48A0
:100AB000006840F400700B4908600846006840F484
:100AC000806008600846006840F480700860032079
:100AD00000F080F80F2000F007F800F02BF800205D
:100AE00010BD0000003C024070B504460E4800787E
:100AF0004FF47A71B1FBF0F00C490968B1FBF0F5E5
:100B0000284600F095F808B1012070BD102C07D2DE
:100B100000222146501E00F01EF80548046001E046
:100B20000120F2E70020F0E70C0000201000002078
:100B300008000020704701460846002809DB00F045
:100B40001F0301229A4043099B0003F1E023C3F8ED
:100B5000002100BF70472DE9F05F80460D46164624
:100B6000002700F0B1F8074639462A46334601F01F
:100B70000700C0F1070ABAF1040F02D94FF0040AC6
:100B800001E0C0F1070AD14600F1040ABAF1070FEB
:100B900002D24FF0000A01E0A0F1030AD4464FF060
:100BA000010A0AFA09FAAAF1010A0AEA020A0AFA89
:100BB0000CFA4FF0010B0BFA0CFBABF1010B0BEA3B
:100BC000030B4AEA0B042146404600F085F8BDE8D5
:100BD000F09F000000BF00F00702064B19684FF6B7
:100BE000FF031940044B0B4343EA0221014B1960F8
:100BF00000BF70470CED00E00000FA0501480068F6
:100C00007047000010000020042808D14FF0E021B8
:100C1000096941F004014FF0E022116107E04FF053
:100C2000E021096921F004014FF0E02211617047D1
:100C300070B504462546681EB0F1807F01D30120BF
:100C40000FE0681E4FF0E02148610F214FF0FF30A8
:100C500000F042F800204FF0E02188610720086191
:100C6000002070BD1448006840F47000124908600C
:100C70001248006840F001001049086000200F4948
:100C8000083108600D4800680D4908400B490860AC
:100C90000C48091D0860081F006820F48020091F07
:100CA0000860002005490C3108604FF000600249DF
:100CB000803908607047000088ED00E0003802408D
:100CC000FFFFF6FE1030002402480068C0F3022047
:100CD000704700000CED00E010B5002804DB0A07A7
:100CE000130E054A135406E00A07140E034A00F0D7
:100CF0000F031B1FD45410BD00E400E018ED00E00A
:100D000000B587B000BF002001900C48006840F09B
:100D100001000A4908600846006800F001000190DF
:100D200000BF00BF03200390012002900020049028
:100D300002A90348FFF7B4FD07B000BD30380240F8
:100D400000000240002100E0491C4FF47A62424357
:100D50008A42F9DC70470000FFF7A8FEFFF7D0FFDA
:100D6000FFF76EFB00F01AF812E00A48FFF7F4FCF8
:100D700005210848FFF793FC20B90648FFF756FC09
:100D8000054908600348FFF767FD6420FFF7DAFFB5
:100D9000EBE70000140000200000002010B5FFF772
:100DA0002DFF4FF47A71B0FBF1F42046FFF740FFBE
:100DB0000420FFF729FF00221146501EFFF7CBFE4B
:100DC0004FF0FF30FFF7B7FE10BD4FF04070E1EE7F
:100DD000100A7047F40D0008000000201400000005
:100DE000C4010008080E000814000020AC06000032
:100DF000E0010008000000000000000010000000FA
:080E0000010000000024F400D1
:0400000508000229C4
:00000001FF
